{
  "contractName": "Auction",
  "abi": [
    {
      "constant": true,
      "inputs": [],
      "name": "endBlock",
      "outputs": [
        {
          "name": "",
          "type": "uint256"
        }
      ],
      "payable": false,
      "stateMutability": "view",
      "type": "function"
    },
    {
      "constant": true,
      "inputs": [],
      "name": "skillMeToken",
      "outputs": [
        {
          "name": "",
          "type": "address"
        }
      ],
      "payable": false,
      "stateMutability": "view",
      "type": "function"
    },
    {
      "constant": true,
      "inputs": [],
      "name": "startBlock",
      "outputs": [
        {
          "name": "",
          "type": "uint256"
        }
      ],
      "payable": false,
      "stateMutability": "view",
      "type": "function"
    },
    {
      "constant": true,
      "inputs": [],
      "name": "owner",
      "outputs": [
        {
          "name": "",
          "type": "address"
        }
      ],
      "payable": false,
      "stateMutability": "view",
      "type": "function"
    },
    {
      "constant": true,
      "inputs": [],
      "name": "auctionBlind",
      "outputs": [
        {
          "name": "",
          "type": "bool"
        }
      ],
      "payable": false,
      "stateMutability": "view",
      "type": "function"
    },
    {
      "constant": true,
      "inputs": [],
      "name": "auctionCanceled",
      "outputs": [
        {
          "name": "",
          "type": "bool"
        }
      ],
      "payable": false,
      "stateMutability": "view",
      "type": "function"
    },
    {
      "constant": true,
      "inputs": [],
      "name": "auctionOwner",
      "outputs": [
        {
          "name": "",
          "type": "address"
        }
      ],
      "payable": false,
      "stateMutability": "view",
      "type": "function"
    },
    {
      "constant": false,
      "inputs": [
        {
          "name": "newOwner",
          "type": "address"
        }
      ],
      "name": "transferOwnership",
      "outputs": [],
      "payable": false,
      "stateMutability": "nonpayable",
      "type": "function"
    },
    {
      "inputs": [
        {
          "name": "_skillMeTokenAddr",
          "type": "address"
        },
        {
          "name": "_startBlock",
          "type": "uint256"
        },
        {
          "name": "_endBlock",
          "type": "uint256"
        },
        {
          "name": "_auctionBlind",
          "type": "bool"
        }
      ],
      "payable": false,
      "stateMutability": "nonpayable",
      "type": "constructor"
    },
    {
      "anonymous": false,
      "inputs": [
        {
          "indexed": false,
          "name": "highestBidder",
          "type": "address"
        },
        {
          "indexed": false,
          "name": "highestBid",
          "type": "uint256"
        }
      ],
      "name": "LogBid",
      "type": "event"
    },
    {
      "anonymous": false,
      "inputs": [
        {
          "indexed": false,
          "name": "withdrawer",
          "type": "address"
        },
        {
          "indexed": false,
          "name": "amount",
          "type": "uint256"
        }
      ],
      "name": "LogWithdrawal",
      "type": "event"
    },
    {
      "anonymous": false,
      "inputs": [],
      "name": "LogCanceled",
      "type": "event"
    },
    {
      "constant": false,
      "inputs": [
        {
          "name": "_bidAmount",
          "type": "uint256"
        }
      ],
      "name": "approving",
      "outputs": [
        {
          "name": "",
          "type": "bool"
        }
      ],
      "payable": false,
      "stateMutability": "nonpayable",
      "type": "function"
    },
    {
      "constant": false,
      "inputs": [
        {
          "name": "_bidAmount",
          "type": "uint256"
        }
      ],
      "name": "placeBid",
      "outputs": [
        {
          "name": "success",
          "type": "bool"
        }
      ],
      "payable": false,
      "stateMutability": "nonpayable",
      "type": "function"
    },
    {
      "constant": false,
      "inputs": [],
      "name": "withdraw",
      "outputs": [
        {
          "name": "success",
          "type": "bool"
        }
      ],
      "payable": false,
      "stateMutability": "nonpayable",
      "type": "function"
    },
    {
      "constant": false,
      "inputs": [],
      "name": "cancelAuction",
      "outputs": [
        {
          "name": "success",
          "type": "bool"
        }
      ],
      "payable": false,
      "stateMutability": "nonpayable",
      "type": "function"
    },
    {
      "constant": true,
      "inputs": [
        {
          "name": "_user",
          "type": "address"
        }
      ],
      "name": "getBidderFunds",
      "outputs": [
        {
          "name": "",
          "type": "uint256"
        }
      ],
      "payable": false,
      "stateMutability": "view",
      "type": "function"
    },
    {
      "constant": true,
      "inputs": [],
      "name": "getHighestBidderDetails",
      "outputs": [
        {
          "name": "",
          "type": "address"
        },
        {
          "name": "",
          "type": "uint256"
        }
      ],
      "payable": false,
      "stateMutability": "view",
      "type": "function"
    }
  ],
  "bytecode": "0x608060405234801561001057600080fd5b506040516080806110aa8339810180604052608081101561003057600080fd5b8101908080519060200190929190805190602001909291908051906020019092919080519060200190929190505050336000806101000a81548173ffffffffffffffffffffffffffffffffffffffff021916908373ffffffffffffffffffffffffffffffffffffffff1602179055508183106100ab57600080fd5b4383106100b757600080fd5b83600160006101000a81548173ffffffffffffffffffffffffffffffffffffffff021916908373ffffffffffffffffffffffffffffffffffffffff16021790555033600260006101000a81548173ffffffffffffffffffffffffffffffffffffffff021916908373ffffffffffffffffffffffffffffffffffffffff16021790555080600560006101000a81548160ff021916908315150217905550826003819055508160048190555050505050610f36806101746000396000f3fe608060405234801561001057600080fd5b50600436106100ea5760003560e01c80638da5cb5b1161008c5780639979ef45116100665780639979ef4514610314578063d05414301461035a578063d3924aaf1461037c578063f2fde38b146103c6576100ea565b80638da5cb5b146102865780638fa8b790146102d057806390772867146102f2576100ea565b80633ccfd60b116100c85780633ccfd60b146101af57806348cd4cb1146101d15780635ba287e6146101ef57806363a39eac14610240576100ea565b8063083c6323146100ef578063280a65261461010d5780632e9a9d7f14610157575b600080fd5b6100f761040a565b6040518082815260200191505060405180910390f35b610115610410565b604051808273ffffffffffffffffffffffffffffffffffffffff1673ffffffffffffffffffffffffffffffffffffffff16815260200191505060405180910390f35b6101996004803603602081101561016d57600080fd5b81019080803573ffffffffffffffffffffffffffffffffffffffff169060200190929190505050610436565b6040518082815260200191505060405180910390f35b6101b76104a0565b604051808215151515815260200191505060405180910390f35b6101d9610776565b6040518082815260200191505060405180910390f35b6101f761077c565b604051808373ffffffffffffffffffffffffffffffffffffffff1673ffffffffffffffffffffffffffffffffffffffff1681526020018281526020019250505060405180910390f35b61026c6004803603602081101561025657600080fd5b81019080803590602001909291905050506107ce565b604051808215151515815260200191505060405180910390f35b61028e6108be565b604051808273ffffffffffffffffffffffffffffffffffffffff1673ffffffffffffffffffffffffffffffffffffffff16815260200191505060405180910390f35b6102d86108e3565b604051808215151515815260200191505060405180910390f35b6102fa6109b5565b604051808215151515815260200191505060405180910390f35b6103406004803603602081101561032a57600080fd5b81019080803590602001909291905050506109c8565b604051808215151515815260200191505060405180910390f35b610362610de4565b604051808215151515815260200191505060405180910390f35b610384610df7565b604051808273ffffffffffffffffffffffffffffffffffffffff1673ffffffffffffffffffffffffffffffffffffffff16815260200191505060405180910390f35b610408600480360360208110156103dc57600080fd5b81019080803573ffffffffffffffffffffffffffffffffffffffff169060200190929190505050610e1d565b005b60045481565b600160009054906101000a900473ffffffffffffffffffffffffffffffffffffffff1681565b600060011515600560009054906101000a900460ff161515141561045957600080fd5b600760008373ffffffffffffffffffffffffffffffffffffffff1673ffffffffffffffffffffffffffffffffffffffff168152602001908152602001600020549050919050565b60006004544310156104b157600080fd5b600560019054906101000a900460ff16156104cb57600080fd5b600560029054906101000a900473ffffffffffffffffffffffffffffffffffffffff1673ffffffffffffffffffffffffffffffffffffffff163373ffffffffffffffffffffffffffffffffffffffff161461052557600080fd5b6000600160009054906101000a900473ffffffffffffffffffffffffffffffffffffffff1673ffffffffffffffffffffffffffffffffffffffff166370a08231306040518263ffffffff1660e01b8152600401808273ffffffffffffffffffffffffffffffffffffffff1673ffffffffffffffffffffffffffffffffffffffff16815260200191505060206040518083038186803b1580156105c657600080fd5b505afa1580156105da573d6000803e3d6000fd5b505050506040513d60208110156105f057600080fd5b81019080805190602001909291905050509050600160009054906101000a900473ffffffffffffffffffffffffffffffffffffffff1673ffffffffffffffffffffffffffffffffffffffff1663a9059cbb33836040518363ffffffff1660e01b8152600401808373ffffffffffffffffffffffffffffffffffffffff1673ffffffffffffffffffffffffffffffffffffffff16815260200182815260200192505050602060405180830381600087803b1580156106ac57600080fd5b505af11580156106c0573d6000803e3d6000fd5b505050506040513d60208110156106d657600080fd5b8101908080519060200190929190505050506001600560016101000a81548160ff0219169083151502179055507fb4214c8c54fc7442f36d3682f59aebaf09358a4431835b30efb29d52cf9e1e913382604051808373ffffffffffffffffffffffffffffffffffffffff1673ffffffffffffffffffffffffffffffffffffffff1681526020018281526020019250505060405180910390a1600191505090565b60035481565b60008060011515600560009054906101000a900460ff16151514156107a057600080fd5b600560029054906101000a900473ffffffffffffffffffffffffffffffffffffffff16600654915091509091565b6000600160009054906101000a900473ffffffffffffffffffffffffffffffffffffffff1673ffffffffffffffffffffffffffffffffffffffff1663095ea7b330846040518363ffffffff1660e01b8152600401808373ffffffffffffffffffffffffffffffffffffffff1673ffffffffffffffffffffffffffffffffffffffff16815260200182815260200192505050602060405180830381600087803b15801561087957600080fd5b505af115801561088d573d6000803e3d6000fd5b505050506040513d60208110156108a357600080fd5b81019080805190602001909291905050505060019050919050565b6000809054906101000a900473ffffffffffffffffffffffffffffffffffffffff1681565b6000600260009054906101000a900473ffffffffffffffffffffffffffffffffffffffff1673ffffffffffffffffffffffffffffffffffffffff163373ffffffffffffffffffffffffffffffffffffffff161461093f57600080fd5b600454431061094d57600080fd5b600560019054906101000a900460ff161561096757600080fd5b6001600560016101000a81548160ff0219169083151502179055507f462b6ca7f632601af1295aeb320851f50e8e630a309173f23535845ea4bfb3b960405160405180910390a16001905090565b600560009054906101000a900460ff1681565b6000600260009054906101000a900473ffffffffffffffffffffffffffffffffffffffff1673ffffffffffffffffffffffffffffffffffffffff163373ffffffffffffffffffffffffffffffffffffffff161415610a2557600080fd5b600354431015610a3457600080fd5b6004544310610a4257600080fd5b600560019054906101000a900460ff1615610a5c57600080fd5b600160009054906101000a900473ffffffffffffffffffffffffffffffffffffffff1673ffffffffffffffffffffffffffffffffffffffff166370a08231336040518263ffffffff1660e01b8152600401808273ffffffffffffffffffffffffffffffffffffffff1673ffffffffffffffffffffffffffffffffffffffff16815260200191505060206040518083038186803b158015610afb57600080fd5b505afa158015610b0f573d6000803e3d6000fd5b505050506040513d6020811015610b2557600080fd5b8101908080519060200190929190505050821115610b4257600080fd5b6000610b9683600760003373ffffffffffffffffffffffffffffffffffffffff1673ffffffffffffffffffffffffffffffffffffffff16815260200190815260200160002054610eee90919063ffffffff16565b90506006548111610ba657600080fd5b600160009054906101000a900473ffffffffffffffffffffffffffffffffffffffff1673ffffffffffffffffffffffffffffffffffffffff166323b872dd3330866040518463ffffffff1660e01b8152600401808473ffffffffffffffffffffffffffffffffffffffff1673ffffffffffffffffffffffffffffffffffffffff1681526020018373ffffffffffffffffffffffffffffffffffffffff1673ffffffffffffffffffffffffffffffffffffffff1681526020018281526020019350505050602060405180830381600087803b158015610c8357600080fd5b505af1158015610c97573d6000803e3d6000fd5b505050506040513d6020811015610cad57600080fd5b81019080805190602001909291905050505080600760003373ffffffffffffffffffffffffffffffffffffffff1673ffffffffffffffffffffffffffffffffffffffff168152602001908152602001600020819055508060068190555033600560026101000a81548173ffffffffffffffffffffffffffffffffffffffff021916908373ffffffffffffffffffffffffffffffffffffffff1602179055507f5331b3a4532c2507900f549683f076c051f92222c177b52f82f140d8667d3ebf600560029054906101000a900473ffffffffffffffffffffffffffffffffffffffff16600654604051808373ffffffffffffffffffffffffffffffffffffffff1673ffffffffffffffffffffffffffffffffffffffff1681526020018281526020019250505060405180910390a16001915050919050565b600560019054906101000a900460ff1681565b600260009054906101000a900473ffffffffffffffffffffffffffffffffffffffff1681565b6000809054906101000a900473ffffffffffffffffffffffffffffffffffffffff1673ffffffffffffffffffffffffffffffffffffffff163373ffffffffffffffffffffffffffffffffffffffff1614610e7657600080fd5b600073ffffffffffffffffffffffffffffffffffffffff168173ffffffffffffffffffffffffffffffffffffffff1614610eeb57806000806101000a81548173ffffffffffffffffffffffffffffffffffffffff021916908373ffffffffffffffffffffffffffffffffffffffff1602179055505b50565b600080828401905083811015610f0057fe5b809150509291505056fea165627a7a72305820e399871e02de47e1ffbfaaac1aae86f244f288d175aab6c1afa71d5deb6458e70029",
  "source": "pragma solidity 0.5.8;\n\nimport \"../libs/SafeMath.sol\";\nimport \"../libs/Ownable.sol\";\nimport \"../interfaces/IERC20.sol\";\nimport \"../token/SkillMeToken.sol\";\n\n/**\n * @title Auction\n *\n * @dev The Auction contract implementation for the SkillMeToken project.\n */\ncontract Auction is Ownable {\n    using SafeMath for uint256;\n\n    // static\n    IERC20 public skillMeToken;\n    // SkillMeToken public skillMeToken;\n    address public auctionOwner;\n    uint256 public startBlock;\n    uint256 public endBlock;\n\n    // state\n    bool public auctionBlind;\n    bool public auctionCanceled;\n    address internal activeHighestBidder;\n    uint256 internal activeHighestBid;\n    mapping(address => uint256) internal fundsByBidders;\n\n    event LogBid(address highestBidder, uint256 highestBid);\n    event LogWithdrawal(address withdrawer, uint256 amount);\n    event LogCanceled();\n\n    modifier onlyAuctionOwner() {\n        require(msg.sender == auctionOwner);\n        _;\n    }\n\n    modifier onlyNotAuctionOwner() {\n        require(msg.sender != auctionOwner);\n        _;\n    }\n\n    modifier onlyAfterAuctionStart() {\n        require(block.number >= startBlock);\n        _;\n    }\n\n    modifier onlyBeforeAuctionEnd() {\n        require(block.number < endBlock);\n        _;\n    }\n\n    modifier onlyNotAuctionCanceled() {\n        require(!auctionCanceled);\n        _;\n    }\n\n    modifier onlyAuctionEnd() {\n        require(block.number >= endBlock);\n        _;\n    }\n\n    modifier onlyWhenAuctionNotBlind() {\n        require(auctionBlind != true);\n        _;\n    }\n\n    constructor(\n        address _skillMeTokenAddr,\n        uint256 _startBlock,\n        uint256 _endBlock,\n        bool _auctionBlind\n    ) public {\n        require(_startBlock < _endBlock);\n        require(_startBlock < block.number);\n\n        skillMeToken = IERC20(_skillMeTokenAddr);\n        auctionOwner = msg.sender;\n        auctionBlind = _auctionBlind;\n        startBlock = _startBlock;\n        endBlock = _endBlock;\n    }\n\n    function approving(uint256 _bidAmount) public returns (bool) {\n        skillMeToken.approve(address(this), _bidAmount);\n\n        return true;\n    }\n\n    function placeBid(uint256 _bidAmount)\n        public\n        onlyNotAuctionOwner\n        onlyAfterAuctionStart\n        onlyBeforeAuctionEnd\n        onlyNotAuctionCanceled\n        returns (bool success)\n    {\n        // Check to know if the Bidder has enough tokens to place a bid\n        require(_bidAmount <= skillMeToken.balanceOf(msg.sender));\n\n        // calculate the user's total bid, current bid amount plus fromal bid (if any)\n        uint256 userNewBid = fundsByBidders[msg.sender].add(_bidAmount);\n\n        // Check if user's New bis out bids current active bid.\n        require(userNewBid > activeHighestBid);\n\n        // Transfer Token to this contract\n        skillMeToken.transferFrom(msg.sender, address(this), _bidAmount);\n\n        // // Save current bidder's details\n        fundsByBidders[msg.sender] = userNewBid;\n        activeHighestBid = userNewBid;\n        activeHighestBidder = msg.sender;\n\n        emit LogBid(activeHighestBidder, activeHighestBid);\n\n        return true;\n    }\n\n    function withdraw()\n        public\n        onlyAuctionEnd\n        onlyNotAuctionCanceled\n        returns (bool success)\n    {\n        require(msg.sender == activeHighestBidder);\n\n        uint256 contractBalance = skillMeToken.balanceOf(address(this));\n        skillMeToken.transfer(msg.sender, contractBalance);\n\n        //Terminate the Auction\n        auctionCanceled = true;\n\n        emit LogWithdrawal(msg.sender, contractBalance);\n\n        return true;\n    }\n\n    function cancelAuction()\n        public\n        onlyAuctionOwner\n        onlyBeforeAuctionEnd\n        onlyNotAuctionCanceled\n        returns (bool success)\n    {\n        auctionCanceled = true;\n\n        emit LogCanceled();\n        return true;\n    }\n\n    function getBidderFunds(address _user)\n        public\n        view\n        onlyWhenAuctionNotBlind\n        returns (uint256)\n    {\n        return fundsByBidders[_user];\n    }\n\n    function getHighestBidderDetails()\n        public\n        view\n        onlyWhenAuctionNotBlind\n        returns (address, uint256)\n    {\n        return (activeHighestBidder, activeHighestBid);\n    }\n}\n",
  "sourcePath": "/Users/mac/Desktop/SkillMeProject/contracts/AuctionHouse/Auction.sol",
  "compiler": {
    "name": "solc",
    "version": "0.5.8+commit.23d335f2.Emscripten.clang"
  },
  "schemaVersion": "3.4.2",
  "updatedAt": "2021-10-29T11:58:15.692Z",
  "devdoc": {
    "details": "The Auction contract implementation for the SkillMeToken project.",
    "methods": {
      "transferOwnership(address)": {
        "details": "Allows the current owner to transfer control of the contract to a newOwner.",
        "params": {
          "newOwner": "The address to transfer ownership to."
        }
      }
    },
    "title": "Auction"
  },
  "userdoc": {
    "methods": {}
  }
}